{
  "_format": "hh-sol-artifact-1",
  "contractName": "AIVerifier",
  "sourceName": "contracts/AIVerifier.sol",
  "abi": [
    {
      "inputs": [
        {
          "internalType": "address",
          "name": "_fastCredit",
          "type": "address"
        }
      ],
      "stateMutability": "nonpayable",
      "type": "constructor"
    },
    {
      "anonymous": false,
      "inputs": [
        {
          "indexed": true,
          "internalType": "bytes32",
          "name": "role",
          "type": "bytes32"
        },
        {
          "indexed": true,
          "internalType": "bytes32",
          "name": "previousAdminRole",
          "type": "bytes32"
        },
        {
          "indexed": true,
          "internalType": "bytes32",
          "name": "newAdminRole",
          "type": "bytes32"
        }
      ],
      "name": "RoleAdminChanged",
      "type": "event"
    },
    {
      "anonymous": false,
      "inputs": [
        {
          "indexed": true,
          "internalType": "bytes32",
          "name": "role",
          "type": "bytes32"
        },
        {
          "indexed": true,
          "internalType": "address",
          "name": "account",
          "type": "address"
        },
        {
          "indexed": true,
          "internalType": "address",
          "name": "sender",
          "type": "address"
        }
      ],
      "name": "RoleGranted",
      "type": "event"
    },
    {
      "anonymous": false,
      "inputs": [
        {
          "indexed": true,
          "internalType": "bytes32",
          "name": "role",
          "type": "bytes32"
        },
        {
          "indexed": true,
          "internalType": "address",
          "name": "account",
          "type": "address"
        },
        {
          "indexed": true,
          "internalType": "address",
          "name": "sender",
          "type": "address"
        }
      ],
      "name": "RoleRevoked",
      "type": "event"
    },
    {
      "anonymous": false,
      "inputs": [
        {
          "indexed": true,
          "internalType": "uint256",
          "name": "requestId",
          "type": "uint256"
        },
        {
          "indexed": true,
          "internalType": "address",
          "name": "user",
          "type": "address"
        },
        {
          "indexed": false,
          "internalType": "uint256",
          "name": "verifiedIncome",
          "type": "uint256"
        },
        {
          "indexed": false,
          "internalType": "bool",
          "name": "success",
          "type": "bool"
        }
      ],
      "name": "VerificationCompleted",
      "type": "event"
    },
    {
      "anonymous": false,
      "inputs": [
        {
          "indexed": true,
          "internalType": "uint256",
          "name": "requestId",
          "type": "uint256"
        },
        {
          "indexed": true,
          "internalType": "address",
          "name": "user",
          "type": "address"
        },
        {
          "indexed": false,
          "internalType": "string",
          "name": "dataReference",
          "type": "string"
        }
      ],
      "name": "VerificationRequested",
      "type": "event"
    },
    {
      "inputs": [],
      "name": "DEFAULT_ADMIN_ROLE",
      "outputs": [
        {
          "internalType": "bytes32",
          "name": "",
          "type": "bytes32"
        }
      ],
      "stateMutability": "view",
      "type": "function"
    },
    {
      "inputs": [],
      "name": "ORACLE_ROLE",
      "outputs": [
        {
          "internalType": "bytes32",
          "name": "",
          "type": "bytes32"
        }
      ],
      "stateMutability": "view",
      "type": "function"
    },
    {
      "inputs": [],
      "name": "bronzeIncomeThreshold",
      "outputs": [
        {
          "internalType": "uint256",
          "name": "",
          "type": "uint256"
        }
      ],
      "stateMutability": "view",
      "type": "function"
    },
    {
      "inputs": [
        {
          "internalType": "enum FastCredit.Rank",
          "name": "currentRank",
          "type": "uint8"
        },
        {
          "internalType": "uint256",
          "name": "stakeAmount",
          "type": "uint256"
        },
        {
          "internalType": "uint256",
          "name": "totalIncome",
          "type": "uint256"
        }
      ],
      "name": "determineRank",
      "outputs": [
        {
          "internalType": "enum FastCredit.Rank",
          "name": "",
          "type": "uint8"
        }
      ],
      "stateMutability": "view",
      "type": "function"
    },
    {
      "inputs": [],
      "name": "diamondIncomeThreshold",
      "outputs": [
        {
          "internalType": "uint256",
          "name": "",
          "type": "uint256"
        }
      ],
      "stateMutability": "view",
      "type": "function"
    },
    {
      "inputs": [],
      "name": "fastCredit",
      "outputs": [
        {
          "internalType": "contract FastCredit",
          "name": "",
          "type": "address"
        }
      ],
      "stateMutability": "view",
      "type": "function"
    },
    {
      "inputs": [
        {
          "internalType": "uint256",
          "name": "requestId",
          "type": "uint256"
        },
        {
          "internalType": "uint256",
          "name": "verifiedIncome",
          "type": "uint256"
        },
        {
          "internalType": "bool",
          "name": "success",
          "type": "bool"
        },
        {
          "internalType": "string",
          "name": "metadataUri",
          "type": "string"
        }
      ],
      "name": "fulfillVerification",
      "outputs": [],
      "stateMutability": "nonpayable",
      "type": "function"
    },
    {
      "inputs": [
        {
          "internalType": "uint256",
          "name": "requestId",
          "type": "uint256"
        }
      ],
      "name": "getRequestDetails",
      "outputs": [
        {
          "internalType": "address",
          "name": "user",
          "type": "address"
        },
        {
          "internalType": "string",
          "name": "dataReference",
          "type": "string"
        },
        {
          "internalType": "bool",
          "name": "isProcessed",
          "type": "bool"
        },
        {
          "internalType": "uint256",
          "name": "timestamp",
          "type": "uint256"
        },
        {
          "internalType": "uint256",
          "name": "verifiedIncome",
          "type": "uint256"
        }
      ],
      "stateMutability": "view",
      "type": "function"
    },
    {
      "inputs": [
        {
          "internalType": "bytes32",
          "name": "role",
          "type": "bytes32"
        }
      ],
      "name": "getRoleAdmin",
      "outputs": [
        {
          "internalType": "bytes32",
          "name": "",
          "type": "bytes32"
        }
      ],
      "stateMutability": "view",
      "type": "function"
    },
    {
      "inputs": [],
      "name": "goldIncomeThreshold",
      "outputs": [
        {
          "internalType": "uint256",
          "name": "",
          "type": "uint256"
        }
      ],
      "stateMutability": "view",
      "type": "function"
    },
    {
      "inputs": [
        {
          "internalType": "bytes32",
          "name": "role",
          "type": "bytes32"
        },
        {
          "internalType": "address",
          "name": "account",
          "type": "address"
        }
      ],
      "name": "grantRole",
      "outputs": [],
      "stateMutability": "nonpayable",
      "type": "function"
    },
    {
      "inputs": [
        {
          "internalType": "bytes32",
          "name": "role",
          "type": "bytes32"
        },
        {
          "internalType": "address",
          "name": "account",
          "type": "address"
        }
      ],
      "name": "hasRole",
      "outputs": [
        {
          "internalType": "bool",
          "name": "",
          "type": "bool"
        }
      ],
      "stateMutability": "view",
      "type": "function"
    },
    {
      "inputs": [],
      "name": "platinumIncomeThreshold",
      "outputs": [
        {
          "internalType": "uint256",
          "name": "",
          "type": "uint256"
        }
      ],
      "stateMutability": "view",
      "type": "function"
    },
    {
      "inputs": [
        {
          "internalType": "bytes32",
          "name": "role",
          "type": "bytes32"
        },
        {
          "internalType": "address",
          "name": "account",
          "type": "address"
        }
      ],
      "name": "renounceRole",
      "outputs": [],
      "stateMutability": "nonpayable",
      "type": "function"
    },
    {
      "inputs": [
        {
          "internalType": "string",
          "name": "dataReference",
          "type": "string"
        }
      ],
      "name": "requestVerification",
      "outputs": [
        {
          "internalType": "uint256",
          "name": "",
          "type": "uint256"
        }
      ],
      "stateMutability": "nonpayable",
      "type": "function"
    },
    {
      "inputs": [
        {
          "internalType": "bytes32",
          "name": "role",
          "type": "bytes32"
        },
        {
          "internalType": "address",
          "name": "account",
          "type": "address"
        }
      ],
      "name": "revokeRole",
      "outputs": [],
      "stateMutability": "nonpayable",
      "type": "function"
    },
    {
      "inputs": [
        {
          "internalType": "uint256",
          "name": "bronze",
          "type": "uint256"
        },
        {
          "internalType": "uint256",
          "name": "silver",
          "type": "uint256"
        },
        {
          "internalType": "uint256",
          "name": "gold",
          "type": "uint256"
        },
        {
          "internalType": "uint256",
          "name": "platinum",
          "type": "uint256"
        },
        {
          "internalType": "uint256",
          "name": "diamond",
          "type": "uint256"
        }
      ],
      "name": "setIncomeThresholds",
      "outputs": [],
      "stateMutability": "nonpayable",
      "type": "function"
    },
    {
      "inputs": [],
      "name": "silverIncomeThreshold",
      "outputs": [
        {
          "internalType": "uint256",
          "name": "",
          "type": "uint256"
        }
      ],
      "stateMutability": "view",
      "type": "function"
    },
    {
      "inputs": [
        {
          "internalType": "bytes4",
          "name": "interfaceId",
          "type": "bytes4"
        }
      ],
      "name": "supportsInterface",
      "outputs": [
        {
          "internalType": "bool",
          "name": "",
          "type": "bool"
        }
      ],
      "stateMutability": "view",
      "type": "function"
    }
  ],
  "bytecode": "0x6080604052633b9aca0060045564012a05f2006005556402540be4006006556405d21dba00600755640ba43b740060085534801561003c57600080fd5b50604051620014ea380380620014ea83398101604081905261005d91610152565b600180546001600160a01b0319166001600160a01b0383161790556100836000336100b3565b6100ad7f68e79a7bf1e0bc45d0a330c573bc367f9cf464fd326078812f301165fbda4ef1336100b3565b50610182565b6000828152602081815260408083206001600160a01b038516845290915290205460ff1661014e576000828152602081815260408083206001600160a01b03851684529091529020805460ff1916600117905561010d3390565b6001600160a01b0316816001600160a01b0316837f2f8788117e7eff1d82e926ec794901d17c78024a50270940304540a733656f0d60405160405180910390a45b5050565b60006020828403121561016457600080fd5b81516001600160a01b038116811461017b57600080fd5b9392505050565b61135880620001926000396000f3fe608060405234801561001057600080fd5b50600436106101215760003560e01c806362175759116100ad57806391d148541161007157806391d148541461025f578063a217fddf14610272578063d547741f1461027a578063e889e8b21461028d578063f34d4c63146102ad57600080fd5b806362175759146101fc5780636cbff42a1461020557806371f161111461021857806380cd6b6d146102215780638582d14c1461023457600080fd5b80632f2ff15d116100f45780632f2ff15d146101af57806336568abe146101c4578063373aaa97146101d75780633990d84f146101e057806348f0d81f146101f357600080fd5b806301c906131461012657806301ffc9a71461014257806307e2cea514610165578063248a9ca31461018c575b600080fd5b61012f60065481565b6040519081526020015b60405180910390f35b610155610150366004610e20565b6102d1565b6040519015158152602001610139565b61012f7f68e79a7bf1e0bc45d0a330c573bc367f9cf464fd326078812f301165fbda4ef181565b61012f61019a366004610e4a565b60009081526020819052604090206001015490565b6101c26101bd366004610e63565b610308565b005b6101c26101d2366004610e63565b610332565b61012f60055481565b6101c26101ee366004610e9f565b6103b5565b61012f60075481565b61012f60045481565b61012f610213366004610f7d565b6103d8565b61012f60085481565b6101c261022f366004610fba565b61059c565b600154610247906001600160a01b031681565b6040516001600160a01b039091168152602001610139565b61015561026d366004610e63565b61087a565b61012f600081565b6101c2610288366004610e63565b6108a3565b6102a061029b36600461102f565b6108c8565b604051610139919061109c565b6102c06102bb366004610e4a565b610960565b604051610139959493929190611106565b60006001600160e01b03198216637965db0b60e01b148061030257506301ffc9a760e01b6001600160e01b03198316145b92915050565b60008281526020819052604090206001015461032381610a91565b61032d8383610a9e565b505050565b6001600160a01b03811633146103a75760405162461bcd60e51b815260206004820152602f60248201527f416363657373436f6e74726f6c3a2063616e206f6e6c792072656e6f756e636560448201526e103937b632b9903337b91039b2b63360891b60648201526084015b60405180910390fd5b6103b18282610b22565b5050565b60006103c081610a91565b50600494909455600592909255600655600755600855565b60015460405163433cc83960e11b815233600482015260009182916001600160a01b0390911690638679907290602401602060405180830381865afa158015610425573d6000803e3d6000fd5b505050506040513d601f19601f820116820180604052508101906104499190611147565b116104965760405162461bcd60e51b815260206004820152601e60248201527f596f75206d757374206861766520612070617373706f72742066697273740000604482015260640161039e565b600380549060006104a683611176565b90915550506040805160c081018252338152600354602080830182815283850187815260006060860181905242608087015260a08601819052938452600280845295909320845181546001600160a01b0319166001600160a01b03909116178155905160018201559151805193949293610527938501929190910190610d87565b5060608201516003828101805460ff1916921515929092179091556080830151600483015560a090920151600590910155546040513391907fa34e1dd2e50439a3590264f0b2c8d97c220efc7ef0fbe5a3552280b9b128c8449061058c90869061118f565b60405180910390a3505060035490565b7f68e79a7bf1e0bc45d0a330c573bc367f9cf464fd326078812f301165fbda4ef16105c681610a91565b600085815260026020526040902080546001600160a01b03166106245760405162461bcd60e51b815260206004820152601660248201527514995c5d595cdd08191bd95cc81b9bdd08195e1a5cdd60521b604482015260640161039e565b600381015460ff16156106795760405162461bcd60e51b815260206004820152601960248201527f5265717565737420616c72656164792070726f63657373656400000000000000604482015260640161039e565b60038101805460ff1916600117905583156108285760058101859055600154815460405163433cc83960e11b81526001600160a01b0391821660048201526000929190911690638679907290602401602060405180830381865afa1580156106e5573d6000803e3d6000fd5b505050506040513d601f19601f820116820180604052508101906107099190611147565b905080156108265760015460405163e188c10f60e01b815260048101839052600091829182916001600160a01b03169063e188c10f90602401606060405180830381865afa15801561075f573d6000803e3d6000fd5b505050506040513d601f19601f8201168201806040525081019061078391906111a2565b9194509250905060006107968a836111d9565b905060006107a58585846108c8565b9050600160009054906101000a90046001600160a01b03166001600160a01b031663f6a0174587838e8d6040518563ffffffff1660e01b81526004016107ee94939291906111f1565b600060405180830381600087803b15801561080857600080fd5b505af115801561081c573d6000803e3d6000fd5b5050505050505050505b505b80546040805187815286151560208201526001600160a01b039092169188917f58a71574da11bc02225cef95567e7ced6fd2c6a8bf7d3e14129add3c2b0a021e910160405180910390a3505050505050565b6000918252602082815260408084206001600160a01b0393909316845291905290205460ff1690565b6000828152602081905260409020600101546108be81610a91565b61032d8383610b22565b60008060085483106108dc57506005610924565b60075483106108ed57506004610924565b60065483106108fe57506003610924565b600554831061090f57506002610924565b600454831061092057506001610924565b5060005b80600581111561093657610936611064565b85600581111561094857610948611064565b106109565784915050610959565b90505b9392505050565b600081815260026020526040812080546060918391829182916001600160a01b03166109c75760405162461bcd60e51b815260206004820152601660248201527514995c5d595cdd08191bd95cc81b9bdd08195e1a5cdd60521b604482015260640161039e565b80546003820154600483015460058401546002850180546001600160a01b0390951694909360ff1692919084906109fd90611227565b80601f0160208091040260200160405190810160405280929190818152602001828054610a2990611227565b8015610a765780601f10610a4b57610100808354040283529160200191610a76565b820191906000526020600020905b815481529060010190602001808311610a5957829003601f168201915b50505050509350955095509550955095505091939590929450565b610a9b8133610b87565b50565b610aa8828261087a565b6103b1576000828152602081815260408083206001600160a01b03851684529091529020805460ff19166001179055610ade3390565b6001600160a01b0316816001600160a01b0316837f2f8788117e7eff1d82e926ec794901d17c78024a50270940304540a733656f0d60405160405180910390a45050565b610b2c828261087a565b156103b1576000828152602081815260408083206001600160a01b0385168085529252808320805460ff1916905551339285917ff6391f5c32d9c69d2a47ea670b442974b53935d1edc7fd64eb21e047a839171b9190a45050565b610b91828261087a565b6103b157610ba9816001600160a01b03166014610beb565b610bb4836020610beb565b604051602001610bc5929190611261565b60408051601f198184030181529082905262461bcd60e51b825261039e9160040161118f565b60606000610bfa8360026112d6565b610c059060026111d9565b67ffffffffffffffff811115610c1d57610c1d610eda565b6040519080825280601f01601f191660200182016040528015610c47576020820181803683370190505b509050600360fc1b81600081518110610c6257610c626112f5565b60200101906001600160f81b031916908160001a905350600f60fb1b81600181518110610c9157610c916112f5565b60200101906001600160f81b031916908160001a9053506000610cb58460026112d6565b610cc09060016111d9565b90505b6001811115610d38576f181899199a1a9b1b9c1cb0b131b232b360811b85600f1660108110610cf457610cf46112f5565b1a60f81b828281518110610d0a57610d0a6112f5565b60200101906001600160f81b031916908160001a90535060049490941c93610d318161130b565b9050610cc3565b5083156109595760405162461bcd60e51b815260206004820181905260248201527f537472696e67733a20686578206c656e67746820696e73756666696369656e74604482015260640161039e565b828054610d9390611227565b90600052602060002090601f016020900481019282610db55760008555610dfb565b82601f10610dce57805160ff1916838001178555610dfb565b82800160010185558215610dfb579182015b82811115610dfb578251825591602001919060010190610de0565b50610e07929150610e0b565b5090565b5b80821115610e075760008155600101610e0c565b600060208284031215610e3257600080fd5b81356001600160e01b03198116811461095957600080fd5b600060208284031215610e5c57600080fd5b5035919050565b60008060408385031215610e7657600080fd5b8235915060208301356001600160a01b0381168114610e9457600080fd5b809150509250929050565b600080600080600060a08688031215610eb757600080fd5b505083359560208501359550604085013594606081013594506080013592509050565b634e487b7160e01b600052604160045260246000fd5b600082601f830112610f0157600080fd5b813567ffffffffffffffff80821115610f1c57610f1c610eda565b604051601f8301601f19908116603f01168101908282118183101715610f4457610f44610eda565b81604052838152866020858801011115610f5d57600080fd5b836020870160208301376000602085830101528094505050505092915050565b600060208284031215610f8f57600080fd5b813567ffffffffffffffff811115610fa657600080fd5b610fb284828501610ef0565b949350505050565b60008060008060808587031215610fd057600080fd5b843593506020850135925060408501358015158114610fee57600080fd5b9150606085013567ffffffffffffffff81111561100a57600080fd5b61101687828801610ef0565b91505092959194509250565b60068110610a9b57600080fd5b60008060006060848603121561104457600080fd5b833561104f81611022565b95602085013595506040909401359392505050565b634e487b7160e01b600052602160045260246000fd5b6006811061109857634e487b7160e01b600052602160045260246000fd5b9052565b60208101610302828461107a565b60005b838110156110c55781810151838201526020016110ad565b838111156110d4576000848401525b50505050565b600081518084526110f28160208601602086016110aa565b601f01601f19169290920160200192915050565b6001600160a01b038616815260a06020820181905260009061112a908301876110da565b941515604083015250606081019290925260809091015292915050565b60006020828403121561115957600080fd5b5051919050565b634e487b7160e01b600052601160045260246000fd5b60006001820161118857611188611160565b5060010190565b60208152600061095960208301846110da565b6000806000606084860312156111b757600080fd5b83516111c281611022565b602085015160409095015190969495509392505050565b600082198211156111ec576111ec611160565b500190565b848152611201602082018561107a565b82604082015260806060820152600061121d60808301846110da565b9695505050505050565b600181811c9082168061123b57607f821691505b60208210810361125b57634e487b7160e01b600052602260045260246000fd5b50919050565b7f416363657373436f6e74726f6c3a206163636f756e74200000000000000000008152600083516112998160178501602088016110aa565b7001034b99036b4b9b9b4b733903937b6329607d1b60179184019182015283516112ca8160288401602088016110aa565b01602801949350505050565b60008160001904831182151516156112f0576112f0611160565b500290565b634e487b7160e01b600052603260045260246000fd5b60008161131a5761131a611160565b50600019019056fea2646970667358221220bd27efc189136a13ac86e7e57b8c65cd95f5be323aff9bc096bb0695255bbb0564736f6c634300080d0033",
  "linkReferences": {},
  "deployedLinkReferences": {}
}