{
  "_format": "hh-sol-artifact-1",
  "contractName": "FastCredit",
  "sourceName": "contracts/CreditPassport.sol",
  "abi": [
    {
      "inputs": [],
      "stateMutability": "nonpayable",
      "type": "constructor"
    },
    {
      "anonymous": false,
      "inputs": [
        {
          "indexed": true,
          "internalType": "address",
          "name": "owner",
          "type": "address"
        },
        {
          "indexed": true,
          "internalType": "address",
          "name": "approved",
          "type": "address"
        },
        {
          "indexed": true,
          "internalType": "uint256",
          "name": "tokenId",
          "type": "uint256"
        }
      ],
      "name": "Approval",
      "type": "event"
    },
    {
      "anonymous": false,
      "inputs": [
        {
          "indexed": true,
          "internalType": "address",
          "name": "owner",
          "type": "address"
        },
        {
          "indexed": true,
          "internalType": "address",
          "name": "operator",
          "type": "address"
        },
        {
          "indexed": false,
          "internalType": "bool",
          "name": "approved",
          "type": "bool"
        }
      ],
      "name": "ApprovalForAll",
      "type": "event"
    },
    {
      "anonymous": false,
      "inputs": [
        {
          "indexed": true,
          "internalType": "address",
          "name": "previousOwner",
          "type": "address"
        },
        {
          "indexed": true,
          "internalType": "address",
          "name": "newOwner",
          "type": "address"
        }
      ],
      "name": "OwnershipTransferred",
      "type": "event"
    },
    {
      "anonymous": false,
      "inputs": [
        {
          "indexed": true,
          "internalType": "uint256",
          "name": "tokenId",
          "type": "uint256"
        },
        {
          "indexed": false,
          "internalType": "enum FastCredit.Rank",
          "name": "newRank",
          "type": "uint8"
        },
        {
          "indexed": false,
          "internalType": "uint256",
          "name": "newTotalIncome",
          "type": "uint256"
        }
      ],
      "name": "PassportUpdated",
      "type": "event"
    },
    {
      "anonymous": false,
      "inputs": [
        {
          "indexed": true,
          "internalType": "bytes32",
          "name": "role",
          "type": "bytes32"
        },
        {
          "indexed": true,
          "internalType": "bytes32",
          "name": "previousAdminRole",
          "type": "bytes32"
        },
        {
          "indexed": true,
          "internalType": "bytes32",
          "name": "newAdminRole",
          "type": "bytes32"
        }
      ],
      "name": "RoleAdminChanged",
      "type": "event"
    },
    {
      "anonymous": false,
      "inputs": [
        {
          "indexed": true,
          "internalType": "bytes32",
          "name": "role",
          "type": "bytes32"
        },
        {
          "indexed": true,
          "internalType": "address",
          "name": "account",
          "type": "address"
        },
        {
          "indexed": true,
          "internalType": "address",
          "name": "sender",
          "type": "address"
        }
      ],
      "name": "RoleGranted",
      "type": "event"
    },
    {
      "anonymous": false,
      "inputs": [
        {
          "indexed": true,
          "internalType": "bytes32",
          "name": "role",
          "type": "bytes32"
        },
        {
          "indexed": true,
          "internalType": "address",
          "name": "account",
          "type": "address"
        },
        {
          "indexed": true,
          "internalType": "address",
          "name": "sender",
          "type": "address"
        }
      ],
      "name": "RoleRevoked",
      "type": "event"
    },
    {
      "anonymous": false,
      "inputs": [
        {
          "indexed": true,
          "internalType": "address",
          "name": "from",
          "type": "address"
        },
        {
          "indexed": true,
          "internalType": "address",
          "name": "to",
          "type": "address"
        },
        {
          "indexed": true,
          "internalType": "uint256",
          "name": "tokenId",
          "type": "uint256"
        }
      ],
      "name": "Transfer",
      "type": "event"
    },
    {
      "inputs": [],
      "name": "DEFAULT_ADMIN_ROLE",
      "outputs": [
        {
          "internalType": "bytes32",
          "name": "",
          "type": "bytes32"
        }
      ],
      "stateMutability": "view",
      "type": "function"
    },
    {
      "inputs": [],
      "name": "MINTER_ROLE",
      "outputs": [
        {
          "internalType": "bytes32",
          "name": "",
          "type": "bytes32"
        }
      ],
      "stateMutability": "view",
      "type": "function"
    },
    {
      "inputs": [
        {
          "internalType": "address",
          "name": "to",
          "type": "address"
        },
        {
          "internalType": "uint256",
          "name": "tokenId",
          "type": "uint256"
        }
      ],
      "name": "approve",
      "outputs": [],
      "stateMutability": "nonpayable",
      "type": "function"
    },
    {
      "inputs": [
        {
          "internalType": "address",
          "name": "owner",
          "type": "address"
        }
      ],
      "name": "balanceOf",
      "outputs": [
        {
          "internalType": "uint256",
          "name": "",
          "type": "uint256"
        }
      ],
      "stateMutability": "view",
      "type": "function"
    },
    {
      "inputs": [
        {
          "internalType": "address",
          "name": "user",
          "type": "address"
        },
        {
          "internalType": "enum FastCredit.Rank",
          "name": "initialRank",
          "type": "uint8"
        },
        {
          "internalType": "uint256",
          "name": "stakeAmount",
          "type": "uint256"
        },
        {
          "internalType": "uint256",
          "name": "initialIncome",
          "type": "uint256"
        },
        {
          "internalType": "string",
          "name": "uri",
          "type": "string"
        }
      ],
      "name": "createPassport",
      "outputs": [
        {
          "internalType": "uint256",
          "name": "",
          "type": "uint256"
        }
      ],
      "stateMutability": "nonpayable",
      "type": "function"
    },
    {
      "inputs": [
        {
          "internalType": "uint256",
          "name": "tokenId",
          "type": "uint256"
        }
      ],
      "name": "getApproved",
      "outputs": [
        {
          "internalType": "address",
          "name": "",
          "type": "address"
        }
      ],
      "stateMutability": "view",
      "type": "function"
    },
    {
      "inputs": [
        {
          "internalType": "uint256",
          "name": "tokenId",
          "type": "uint256"
        }
      ],
      "name": "getPassportInfo",
      "outputs": [
        {
          "internalType": "enum FastCredit.Rank",
          "name": "rank",
          "type": "uint8"
        },
        {
          "internalType": "uint256",
          "name": "stakeAmount",
          "type": "uint256"
        },
        {
          "internalType": "uint256",
          "name": "verifiedIncome",
          "type": "uint256"
        }
      ],
      "stateMutability": "view",
      "type": "function"
    },
    {
      "inputs": [
        {
          "internalType": "uint256",
          "name": "tokenId",
          "type": "uint256"
        }
      ],
      "name": "getPassportRank",
      "outputs": [
        {
          "internalType": "enum FastCredit.Rank",
          "name": "",
          "type": "uint8"
        }
      ],
      "stateMutability": "view",
      "type": "function"
    },
    {
      "inputs": [
        {
          "internalType": "bytes32",
          "name": "role",
          "type": "bytes32"
        }
      ],
      "name": "getRoleAdmin",
      "outputs": [
        {
          "internalType": "bytes32",
          "name": "",
          "type": "bytes32"
        }
      ],
      "stateMutability": "view",
      "type": "function"
    },
    {
      "inputs": [
        {
          "internalType": "address",
          "name": "user",
          "type": "address"
        }
      ],
      "name": "getUserPassport",
      "outputs": [
        {
          "internalType": "uint256",
          "name": "",
          "type": "uint256"
        }
      ],
      "stateMutability": "view",
      "type": "function"
    },
    {
      "inputs": [
        {
          "internalType": "bytes32",
          "name": "role",
          "type": "bytes32"
        },
        {
          "internalType": "address",
          "name": "account",
          "type": "address"
        }
      ],
      "name": "grantRole",
      "outputs": [],
      "stateMutability": "nonpayable",
      "type": "function"
    },
    {
      "inputs": [
        {
          "internalType": "bytes32",
          "name": "role",
          "type": "bytes32"
        },
        {
          "internalType": "address",
          "name": "account",
          "type": "address"
        }
      ],
      "name": "hasRole",
      "outputs": [
        {
          "internalType": "bool",
          "name": "",
          "type": "bool"
        }
      ],
      "stateMutability": "view",
      "type": "function"
    },
    {
      "inputs": [
        {
          "internalType": "address",
          "name": "owner",
          "type": "address"
        },
        {
          "internalType": "address",
          "name": "operator",
          "type": "address"
        }
      ],
      "name": "isApprovedForAll",
      "outputs": [
        {
          "internalType": "bool",
          "name": "",
          "type": "bool"
        }
      ],
      "stateMutability": "view",
      "type": "function"
    },
    {
      "inputs": [],
      "name": "name",
      "outputs": [
        {
          "internalType": "string",
          "name": "",
          "type": "string"
        }
      ],
      "stateMutability": "view",
      "type": "function"
    },
    {
      "inputs": [],
      "name": "owner",
      "outputs": [
        {
          "internalType": "address",
          "name": "",
          "type": "address"
        }
      ],
      "stateMutability": "view",
      "type": "function"
    },
    {
      "inputs": [
        {
          "internalType": "uint256",
          "name": "tokenId",
          "type": "uint256"
        }
      ],
      "name": "ownerOf",
      "outputs": [
        {
          "internalType": "address",
          "name": "",
          "type": "address"
        }
      ],
      "stateMutability": "view",
      "type": "function"
    },
    {
      "inputs": [
        {
          "internalType": "enum FastCredit.Rank",
          "name": "rank",
          "type": "uint8"
        }
      ],
      "name": "rankToString",
      "outputs": [
        {
          "internalType": "string",
          "name": "",
          "type": "string"
        }
      ],
      "stateMutability": "pure",
      "type": "function"
    },
    {
      "inputs": [],
      "name": "renounceOwnership",
      "outputs": [],
      "stateMutability": "nonpayable",
      "type": "function"
    },
    {
      "inputs": [
        {
          "internalType": "bytes32",
          "name": "role",
          "type": "bytes32"
        },
        {
          "internalType": "address",
          "name": "account",
          "type": "address"
        }
      ],
      "name": "renounceRole",
      "outputs": [],
      "stateMutability": "nonpayable",
      "type": "function"
    },
    {
      "inputs": [
        {
          "internalType": "bytes32",
          "name": "role",
          "type": "bytes32"
        },
        {
          "internalType": "address",
          "name": "account",
          "type": "address"
        }
      ],
      "name": "revokeRole",
      "outputs": [],
      "stateMutability": "nonpayable",
      "type": "function"
    },
    {
      "inputs": [
        {
          "internalType": "address",
          "name": "from",
          "type": "address"
        },
        {
          "internalType": "address",
          "name": "to",
          "type": "address"
        },
        {
          "internalType": "uint256",
          "name": "tokenId",
          "type": "uint256"
        }
      ],
      "name": "safeTransferFrom",
      "outputs": [],
      "stateMutability": "nonpayable",
      "type": "function"
    },
    {
      "inputs": [
        {
          "internalType": "address",
          "name": "from",
          "type": "address"
        },
        {
          "internalType": "address",
          "name": "to",
          "type": "address"
        },
        {
          "internalType": "uint256",
          "name": "tokenId",
          "type": "uint256"
        },
        {
          "internalType": "bytes",
          "name": "data",
          "type": "bytes"
        }
      ],
      "name": "safeTransferFrom",
      "outputs": [],
      "stateMutability": "nonpayable",
      "type": "function"
    },
    {
      "inputs": [
        {
          "internalType": "address",
          "name": "operator",
          "type": "address"
        },
        {
          "internalType": "bool",
          "name": "approved",
          "type": "bool"
        }
      ],
      "name": "setApprovalForAll",
      "outputs": [],
      "stateMutability": "nonpayable",
      "type": "function"
    },
    {
      "inputs": [
        {
          "internalType": "bytes4",
          "name": "interfaceId",
          "type": "bytes4"
        }
      ],
      "name": "supportsInterface",
      "outputs": [
        {
          "internalType": "bool",
          "name": "",
          "type": "bool"
        }
      ],
      "stateMutability": "view",
      "type": "function"
    },
    {
      "inputs": [],
      "name": "symbol",
      "outputs": [
        {
          "internalType": "string",
          "name": "",
          "type": "string"
        }
      ],
      "stateMutability": "view",
      "type": "function"
    },
    {
      "inputs": [
        {
          "internalType": "uint256",
          "name": "tokenId",
          "type": "uint256"
        }
      ],
      "name": "tokenURI",
      "outputs": [
        {
          "internalType": "string",
          "name": "",
          "type": "string"
        }
      ],
      "stateMutability": "view",
      "type": "function"
    },
    {
      "inputs": [
        {
          "internalType": "address",
          "name": "from",
          "type": "address"
        },
        {
          "internalType": "address",
          "name": "to",
          "type": "address"
        },
        {
          "internalType": "uint256",
          "name": "tokenId",
          "type": "uint256"
        }
      ],
      "name": "transferFrom",
      "outputs": [],
      "stateMutability": "nonpayable",
      "type": "function"
    },
    {
      "inputs": [
        {
          "internalType": "address",
          "name": "newOwner",
          "type": "address"
        }
      ],
      "name": "transferOwnership",
      "outputs": [],
      "stateMutability": "nonpayable",
      "type": "function"
    },
    {
      "inputs": [
        {
          "internalType": "uint256",
          "name": "tokenId",
          "type": "uint256"
        },
        {
          "internalType": "enum FastCredit.Rank",
          "name": "newRank",
          "type": "uint8"
        },
        {
          "internalType": "uint256",
          "name": "additionalIncome",
          "type": "uint256"
        },
        {
          "internalType": "string",
          "name": "newUri",
          "type": "string"
        }
      ],
      "name": "updatePassport",
      "outputs": [],
      "stateMutability": "nonpayable",
      "type": "function"
    }
  ],
  "bytecode": "0x60806040523480156200001157600080fd5b50604080518082018252600a81526911985cdd10dc99591a5d60b21b6020808301918252835180850190945260058452641190d4915160da1b9084015281519192916200006191600091620001d9565b50805162000077906001906020840190620001d9565b505050620000946200008e620000de60201b60201c565b620000e2565b620000a160003362000134565b620000cd7f9f2df0fed2c77648de5860a4cc508cd0818c85b8b8a1ab4ceeef8d981c8956a63362000134565b620000d833620000e2565b620002bb565b3390565b600880546001600160a01b038381166001600160a01b0319831681179093556040519116919082907f8be0079c531659141344cd1fd0a4f28419497f9722a3daafe3b4186f6b6457e090600090a35050565b60008281526007602090815260408083206001600160a01b038516845290915290205460ff16620001d55760008281526007602090815260408083206001600160a01b03851684529091529020805460ff19166001179055620001943390565b6001600160a01b0316816001600160a01b0316837f2f8788117e7eff1d82e926ec794901d17c78024a50270940304540a733656f0d60405160405180910390a45b5050565b828054620001e7906200027f565b90600052602060002090601f0160209004810192826200020b576000855562000256565b82601f106200022657805160ff191683800117855562000256565b8280016001018555821562000256579182015b828111156200025657825182559160200191906001019062000239565b506200026492915062000268565b5090565b5b8082111562000264576000815560010162000269565b600181811c908216806200029457607f821691505b602082108103620002b557634e487b7160e01b600052602260045260246000fd5b50919050565b6123a880620002cb6000396000f3fe608060405234801561001057600080fd5b50600436106101cf5760003560e01c80638679907211610104578063c87b56dd116100a2578063e188c10f11610071578063e188c10f14610412578063e985e9c514610434578063f2fde38b14610470578063f6a017451461048357600080fd5b8063c87b56dd146103b2578063cb5565ba146103c5578063d5391393146103d8578063d547741f146103ff57600080fd5b806395d89b41116100de57806395d89b411461037c578063a217fddf14610384578063a22cb4651461038c578063b88d4fde1461039f57600080fd5b8063867990721461032f5780638da5cb5b1461035857806391d148541461036957600080fd5b80632f2ff15d116101715780636352211e1161014b5780636352211e146102e157806364149dca146102f457806370a0823114610314578063715018a61461032757600080fd5b80632f2ff15d146102a857806336568abe146102bb57806342842e0e146102ce57600080fd5b8063095ea7b3116101ad578063095ea7b31461023c57806323b872dd14610251578063248a9ca3146102645780632b5cf6021461029557600080fd5b806301ffc9a7146101d457806306fdde03146101fc578063081812fc14610211575b600080fd5b6101e76101e2366004611c12565b610496565b60405190151581526020015b60405180910390f35b6102046104a7565b6040516101f39190611c87565b61022461021f366004611c9a565b610539565b6040516001600160a01b0390911681526020016101f3565b61024f61024a366004611ccf565b610560565b005b61024f61025f366004611cf9565b61067a565b610287610272366004611c9a565b60009081526007602052604090206001015490565b6040519081526020016101f3565b6102046102a3366004611d44565b6106ab565b61024f6102b6366004611d5f565b6107f5565b61024f6102c9366004611d5f565b61081a565b61024f6102dc366004611cf9565b610898565b6102246102ef366004611c9a565b6108b3565b610307610302366004611c9a565b610913565b6040516101f39190611dc3565b610287610322366004611dd1565b610957565b61024f6109dd565b61028761033d366004611dd1565b6001600160a01b03166000908152600c602052604090205490565b6008546001600160a01b0316610224565b6101e7610377366004611d5f565b6109f1565b610204610a1c565b610287600081565b61024f61039a366004611dec565b610a2b565b61024f6103ad366004611eb4565b610a36565b6102046103c0366004611c9a565b610a6e565b6102876103d3366004611f50565b610b7e565b6102877f9f2df0fed2c77648de5860a4cc508cd0818c85b8b8a1ab4ceeef8d981c8956a681565b61024f61040d366004611d5f565b610d0a565b610425610420366004611c9a565b610d2f565b6040516101f393929190611fc2565b6101e7610442366004611fe1565b6001600160a01b03918216600090815260056020908152604080832093909416825291909152205460ff1690565b61024f61047e366004611dd1565b610d91565b61024f61049136600461200b565b610e0a565b60006104a182610f11565b92915050565b6060600080546104b690612060565b80601f01602080910402602001604051908101604052809291908181526020018280546104e290612060565b801561052f5780601f106105045761010080835404028352916020019161052f565b820191906000526020600020905b81548152906001019060200180831161051257829003601f168201915b5050505050905090565b600061054482610f36565b506000908152600460205260409020546001600160a01b031690565b600061056b826108b3565b9050806001600160a01b0316836001600160a01b0316036105dd5760405162461bcd60e51b815260206004820152602160248201527f4552433732313a20617070726f76616c20746f2063757272656e74206f776e656044820152603960f91b60648201526084015b60405180910390fd5b336001600160a01b03821614806105f957506105f98133610442565b61066b5760405162461bcd60e51b815260206004820152603e60248201527f4552433732313a20617070726f76652063616c6c6572206973206e6f7420746f60448201527f6b656e206f776e6572206e6f7220617070726f76656420666f7220616c6c000060648201526084016105d4565b6106758383610f95565b505050565b6106843382611003565b6106a05760405162461bcd60e51b81526004016105d49061209a565b610675838383611081565b606060018260058111156106c1576106c1611d8b565b036106e857505060408051808201909152600681526542524f4e5a4560d01b602082015290565b60028260058111156106fc576106fc611d8b565b0361072357505060408051808201909152600681526529a4a62b22a960d11b602082015290565b600382600581111561073757610737611d8b565b0361075c57505060408051808201909152600481526311d3d31160e21b602082015290565b600482600581111561077057610770611d8b565b03610799575050604080518082019091526008815267504c4154494e554d60c01b602082015290565b60058260058111156107ad576107ad611d8b565b036107d55750506040805180820190915260078152661112505353d39160ca1b602082015290565b50506040805180820190915260048152634e4f4e4560e01b602082015290565b6000828152600760205260409020600101546108108161121d565b6106758383611227565b6001600160a01b038116331461088a5760405162461bcd60e51b815260206004820152602f60248201527f416363657373436f6e74726f6c3a2063616e206f6e6c792072656e6f756e636560448201526e103937b632b9903337b91039b2b63360891b60648201526084016105d4565b61089482826112ad565b5050565b61067583838360405180602001604052806000815250610a36565b6000818152600260205260408120546001600160a01b0316806104a15760405162461bcd60e51b8152602060048201526018602482015277115490cdcc8c4e881a5b9d985b1a59081d1bdad95b88125160421b60448201526064016105d4565b6000818152600e602052604081205460ff166109415760405162461bcd60e51b81526004016105d4906120e8565b506000908152600a602052604090205460ff1690565b60006001600160a01b0382166109c15760405162461bcd60e51b815260206004820152602960248201527f4552433732313a2061646472657373207a65726f206973206e6f7420612076616044820152683634b21037bbb732b960b91b60648201526084016105d4565b506001600160a01b031660009081526003602052604090205490565b6109e5611314565b6109ef600061136e565b565b60009182526007602090815260408084206001600160a01b0393909316845291905290205460ff1690565b6060600180546104b690612060565b6108943383836113c0565b610a403383611003565b610a5c5760405162461bcd60e51b81526004016105d49061209a565b610a688484848461148e565b50505050565b6060610a7982610f36565b60008281526006602052604081208054610a9290612060565b80601f0160208091040260200160405190810160405280929190818152602001828054610abe90612060565b8015610b0b5780601f10610ae057610100808354040283529160200191610b0b565b820191906000526020600020905b815481529060010190602001808311610aee57829003601f168201915b505050505090506000610b2960408051602081019091526000815290565b90508051600003610b3b575092915050565b815115610b6d578082604051602001610b5592919061211f565b60405160208183030381529060405292505050919050565b610b76846114c1565b949350505050565b60007f9f2df0fed2c77648de5860a4cc508cd0818c85b8b8a1ab4ceeef8d981c8956a6610baa8161121d565b6001600160a01b0387166000908152600c602052604090205415610c1b5760405162461bcd60e51b815260206004820152602260248201527f5573657220616c7265616479206861732061206372656469742070617373706f6044820152611c9d60f21b60648201526084016105d4565b610c29600980546001019055565b6000610c3460095490565b9050610c408882611535565b610c4a8185611677565b6000818152600a60205260409020805488919060ff19166001836005811115610c7557610c75611d8b565b02179055506000818152600d60209081526040808320899055600b82528083208890556001600160a01b038b168352600c8252808320849055838352600e90915290819020805460ff191660011790555181907f2cd30fced50acfdc44577b4a7219616e78c31078ae971c384afac0872ad55b5b90610cf7908a90899061214e565b60405180910390a2979650505050505050565b600082815260076020526040902060010154610d258161121d565b61067583836112ad565b6000818152600e60205260408120548190819060ff16610d615760405162461bcd60e51b81526004016105d4906120e8565b5050506000818152600a6020908152604080832054600d835281842054600b90935292205460ff90921693909250565b610d99611314565b6001600160a01b038116610dfe5760405162461bcd60e51b815260206004820152602660248201527f4f776e61626c653a206e6577206f776e657220697320746865207a65726f206160448201526564647265737360d01b60648201526084016105d4565b610e078161136e565b50565b7f9f2df0fed2c77648de5860a4cc508cd0818c85b8b8a1ab4ceeef8d981c8956a6610e348161121d565b6000858152600e602052604090205460ff16610e625760405162461bcd60e51b81526004016105d4906120e8565b6000858152600a60205260409020805485919060ff19166001836005811115610e8d57610e8d611d8b565b02179055506000858152600b602052604081208054859290610eb090849061217f565b90915550610ec090508583611677565b6000858152600b60205260409081902054905186917f2cd30fced50acfdc44577b4a7219616e78c31078ae971c384afac0872ad55b5b91610f0291889161214e565b60405180910390a25050505050565b60006001600160e01b03198216637965db0b60e01b14806104a157506104a182611711565b6000818152600260205260409020546001600160a01b0316610e075760405162461bcd60e51b8152602060048201526018602482015277115490cdcc8c4e881a5b9d985b1a59081d1bdad95b88125160421b60448201526064016105d4565b600081815260046020526040902080546001600160a01b0319166001600160a01b0384169081179091558190610fca826108b3565b6001600160a01b03167f8c5be1e5ebec7d5bd14f71427d1e84f3dd0314c0f7b2291e5b200ac8c7c3b92560405160405180910390a45050565b60008061100f836108b3565b9050806001600160a01b0316846001600160a01b0316148061105657506001600160a01b0380821660009081526005602090815260408083209388168352929052205460ff165b80610b765750836001600160a01b031661106f84610539565b6001600160a01b031614949350505050565b826001600160a01b0316611094826108b3565b6001600160a01b0316146110f85760405162461bcd60e51b815260206004820152602560248201527f4552433732313a207472616e736665722066726f6d20696e636f72726563742060448201526437bbb732b960d91b60648201526084016105d4565b6001600160a01b03821661115a5760405162461bcd60e51b8152602060048201526024808201527f4552433732313a207472616e7366657220746f20746865207a65726f206164646044820152637265737360e01b60648201526084016105d4565b611165600082610f95565b6001600160a01b038316600090815260036020526040812080546001929061118e908490612197565b90915550506001600160a01b03821660009081526003602052604081208054600192906111bc90849061217f565b909155505060008181526002602052604080822080546001600160a01b0319166001600160a01b0386811691821790925591518493918716917fddf252ad1be2c89b69c2b068fc378daa952ba7f163c4a11628f55a4df523b3ef91a4505050565b610e078133611761565b61123182826109f1565b6108945760008281526007602090815260408083206001600160a01b03851684529091529020805460ff191660011790556112693390565b6001600160a01b0316816001600160a01b0316837f2f8788117e7eff1d82e926ec794901d17c78024a50270940304540a733656f0d60405160405180910390a45050565b6112b782826109f1565b156108945760008281526007602090815260408083206001600160a01b0385168085529252808320805460ff1916905551339285917ff6391f5c32d9c69d2a47ea670b442974b53935d1edc7fd64eb21e047a839171b9190a45050565b6008546001600160a01b031633146109ef5760405162461bcd60e51b815260206004820181905260248201527f4f776e61626c653a2063616c6c6572206973206e6f7420746865206f776e657260448201526064016105d4565b600880546001600160a01b038381166001600160a01b0319831681179093556040519116919082907f8be0079c531659141344cd1fd0a4f28419497f9722a3daafe3b4186f6b6457e090600090a35050565b816001600160a01b0316836001600160a01b0316036114215760405162461bcd60e51b815260206004820152601960248201527f4552433732313a20617070726f766520746f2063616c6c65720000000000000060448201526064016105d4565b6001600160a01b03838116600081815260056020908152604080832094871680845294825291829020805460ff191686151590811790915591519182527f17307eab39ab6107e8899845ad3d59bd9653f200f220920489ca2b5937696c31910160405180910390a3505050565b611499848484611081565b6114a5848484846117c5565b610a685760405162461bcd60e51b81526004016105d4906121ae565b60606114cc82610f36565b60006114e360408051602081019091526000815290565b90506000815111611503576040518060200160405280600081525061152e565b8061150d846118c6565b60405160200161151e92919061211f565b6040516020818303038152906040525b9392505050565b6001600160a01b03821661158b5760405162461bcd60e51b815260206004820181905260248201527f4552433732313a206d696e7420746f20746865207a65726f206164647265737360448201526064016105d4565b6000818152600260205260409020546001600160a01b0316156115f05760405162461bcd60e51b815260206004820152601c60248201527f4552433732313a20746f6b656e20616c7265616479206d696e7465640000000060448201526064016105d4565b6001600160a01b038216600090815260036020526040812080546001929061161990849061217f565b909155505060008181526002602052604080822080546001600160a01b0319166001600160a01b03861690811790915590518392907fddf252ad1be2c89b69c2b068fc378daa952ba7f163c4a11628f55a4df523b3ef908290a45050565b6000828152600260205260409020546001600160a01b03166116f25760405162461bcd60e51b815260206004820152602e60248201527f45524337323155524953746f726167653a2055524920736574206f66206e6f6e60448201526d32bc34b9ba32b73a103a37b5b2b760911b60648201526084016105d4565b6000828152600660209081526040909120825161067592840190611b63565b60006001600160e01b031982166380ac58cd60e01b148061174257506001600160e01b03198216635b5e139f60e01b145b806104a157506301ffc9a760e01b6001600160e01b03198316146104a1565b61176b82826109f1565b61089457611783816001600160a01b031660146119c7565b61178e8360206119c7565b60405160200161179f929190612200565b60408051601f198184030181529082905262461bcd60e51b82526105d491600401611c87565b60006001600160a01b0384163b156118bb57604051630a85bd0160e11b81526001600160a01b0385169063150b7a0290611809903390899088908890600401612275565b6020604051808303816000875af1925050508015611844575060408051601f3d908101601f19168201909252611841918101906122b2565b60015b6118a1573d808015611872576040519150601f19603f3d011682016040523d82523d6000602084013e611877565b606091505b5080516000036118995760405162461bcd60e51b81526004016105d4906121ae565b805181602001fd5b6001600160e01b031916630a85bd0160e11b149050610b76565b506001949350505050565b6060816000036118ed5750506040805180820190915260018152600360fc1b602082015290565b8160005b81156119175780611901816122cf565b91506119109050600a836122fe565b91506118f1565b60008167ffffffffffffffff81111561193257611932611e28565b6040519080825280601f01601f19166020018201604052801561195c576020820181803683370190505b5090505b8415610b7657611971600183612197565b915061197e600a86612312565b61198990603061217f565b60f81b81838151811061199e5761199e612326565b60200101906001600160f81b031916908160001a9053506119c0600a866122fe565b9450611960565b606060006119d683600261233c565b6119e190600261217f565b67ffffffffffffffff8111156119f9576119f9611e28565b6040519080825280601f01601f191660200182016040528015611a23576020820181803683370190505b509050600360fc1b81600081518110611a3e57611a3e612326565b60200101906001600160f81b031916908160001a905350600f60fb1b81600181518110611a6d57611a6d612326565b60200101906001600160f81b031916908160001a9053506000611a9184600261233c565b611a9c90600161217f565b90505b6001811115611b14576f181899199a1a9b1b9c1cb0b131b232b360811b85600f1660108110611ad057611ad0612326565b1a60f81b828281518110611ae657611ae6612326565b60200101906001600160f81b031916908160001a90535060049490941c93611b0d8161235b565b9050611a9f565b50831561152e5760405162461bcd60e51b815260206004820181905260248201527f537472696e67733a20686578206c656e67746820696e73756666696369656e7460448201526064016105d4565b828054611b6f90612060565b90600052602060002090601f016020900481019282611b915760008555611bd7565b82601f10611baa57805160ff1916838001178555611bd7565b82800160010185558215611bd7579182015b82811115611bd7578251825591602001919060010190611bbc565b50611be3929150611be7565b5090565b5b80821115611be35760008155600101611be8565b6001600160e01b031981168114610e0757600080fd5b600060208284031215611c2457600080fd5b813561152e81611bfc565b60005b83811015611c4a578181015183820152602001611c32565b83811115610a685750506000910152565b60008151808452611c73816020860160208601611c2f565b601f01601f19169290920160200192915050565b60208152600061152e6020830184611c5b565b600060208284031215611cac57600080fd5b5035919050565b80356001600160a01b0381168114611cca57600080fd5b919050565b60008060408385031215611ce257600080fd5b611ceb83611cb3565b946020939093013593505050565b600080600060608486031215611d0e57600080fd5b611d1784611cb3565b9250611d2560208501611cb3565b9150604084013590509250925092565b803560068110611cca57600080fd5b600060208284031215611d5657600080fd5b61152e82611d35565b60008060408385031215611d7257600080fd5b82359150611d8260208401611cb3565b90509250929050565b634e487b7160e01b600052602160045260246000fd5b60068110611dbf57634e487b7160e01b600052602160045260246000fd5b9052565b602081016104a18284611da1565b600060208284031215611de357600080fd5b61152e82611cb3565b60008060408385031215611dff57600080fd5b611e0883611cb3565b915060208301358015158114611e1d57600080fd5b809150509250929050565b634e487b7160e01b600052604160045260246000fd5b600067ffffffffffffffff80841115611e5957611e59611e28565b604051601f8501601f19908116603f01168101908282118183101715611e8157611e81611e28565b81604052809350858152868686011115611e9a57600080fd5b858560208301376000602087830101525050509392505050565b60008060008060808587031215611eca57600080fd5b611ed385611cb3565b9350611ee160208601611cb3565b925060408501359150606085013567ffffffffffffffff811115611f0457600080fd5b8501601f81018713611f1557600080fd5b611f2487823560208401611e3e565b91505092959194509250565b600082601f830112611f4157600080fd5b61152e83833560208501611e3e565b600080600080600060a08688031215611f6857600080fd5b611f7186611cb3565b9450611f7f60208701611d35565b93506040860135925060608601359150608086013567ffffffffffffffff811115611fa957600080fd5b611fb588828901611f30565b9150509295509295909350565b60608101611fd08286611da1565b602082019390935260400152919050565b60008060408385031215611ff457600080fd5b611ffd83611cb3565b9150611d8260208401611cb3565b6000806000806080858703121561202157600080fd5b8435935061203160208601611d35565b925060408501359150606085013567ffffffffffffffff81111561205457600080fd5b611f2487828801611f30565b600181811c9082168061207457607f821691505b60208210810361209457634e487b7160e01b600052602260045260246000fd5b50919050565b6020808252602e908201527f4552433732313a2063616c6c6572206973206e6f7420746f6b656e206f776e6560408201526d1c881b9bdc88185c1c1c9bdd995960921b606082015260800190565b60208082526017908201527f50617373706f727420646f6573206e6f74206578697374000000000000000000604082015260600190565b60008351612131818460208801611c2f565b835190830190612145818360208801611c2f565b01949350505050565b6040810161215c8285611da1565b8260208301529392505050565b634e487b7160e01b600052601160045260246000fd5b6000821982111561219257612192612169565b500190565b6000828210156121a9576121a9612169565b500390565b60208082526032908201527f4552433732313a207472616e7366657220746f206e6f6e20455243373231526560408201527131b2b4bb32b91034b6b83632b6b2b73a32b960711b606082015260800190565b7f416363657373436f6e74726f6c3a206163636f756e7420000000000000000000815260008351612238816017850160208801611c2f565b7001034b99036b4b9b9b4b733903937b6329607d1b6017918401918201528351612269816028840160208801611c2f565b01602801949350505050565b6001600160a01b03858116825284166020820152604081018390526080606082018190526000906122a890830184611c5b565b9695505050505050565b6000602082840312156122c457600080fd5b815161152e81611bfc565b6000600182016122e1576122e1612169565b5060010190565b634e487b7160e01b600052601260045260246000fd5b60008261230d5761230d6122e8565b500490565b600082612321576123216122e8565b500690565b634e487b7160e01b600052603260045260246000fd5b600081600019048311821515161561235657612356612169565b500290565b60008161236a5761236a612169565b50600019019056fea26469706673582212206feb54c1db6ef6a1877c05a83bf987ad91730bf76eada3ea5ff3a967c930566d64736f6c634300080d0033",
  "linkReferences": {},
  "deployedLinkReferences": {}
}