{
  "_format": "hh-sol-artifact-1",
  "contractName": "FastCreditStaking",
  "sourceName": "contracts/PassportStaking.sol",
  "abi": [
    {
      "inputs": [
        {
          "internalType": "address",
          "name": "_fastCredit",
          "type": "address"
        },
        {
          "internalType": "address",
          "name": "_usdcToken",
          "type": "address"
        }
      ],
      "stateMutability": "nonpayable",
      "type": "constructor"
    },
    {
      "anonymous": false,
      "inputs": [
        {
          "indexed": true,
          "internalType": "address",
          "name": "previousOwner",
          "type": "address"
        },
        {
          "indexed": true,
          "internalType": "address",
          "name": "newOwner",
          "type": "address"
        }
      ],
      "name": "OwnershipTransferred",
      "type": "event"
    },
    {
      "anonymous": false,
      "inputs": [
        {
          "indexed": true,
          "internalType": "address",
          "name": "user",
          "type": "address"
        },
        {
          "indexed": false,
          "internalType": "uint256",
          "name": "tokenId",
          "type": "uint256"
        },
        {
          "indexed": false,
          "internalType": "enum FastCredit.Rank",
          "name": "rank",
          "type": "uint8"
        }
      ],
      "name": "PassportCreated",
      "type": "event"
    },
    {
      "anonymous": false,
      "inputs": [
        {
          "indexed": true,
          "internalType": "address",
          "name": "user",
          "type": "address"
        },
        {
          "indexed": false,
          "internalType": "uint256",
          "name": "amount",
          "type": "uint256"
        }
      ],
      "name": "Staked",
      "type": "event"
    },
    {
      "anonymous": false,
      "inputs": [
        {
          "indexed": true,
          "internalType": "address",
          "name": "user",
          "type": "address"
        },
        {
          "indexed": false,
          "internalType": "uint256",
          "name": "amount",
          "type": "uint256"
        }
      ],
      "name": "Unstaked",
      "type": "event"
    },
    {
      "inputs": [],
      "name": "bronzeThreshold",
      "outputs": [
        {
          "internalType": "uint256",
          "name": "",
          "type": "uint256"
        }
      ],
      "stateMutability": "view",
      "type": "function"
    },
    {
      "inputs": [
        {
          "internalType": "uint256",
          "name": "stakeAmount",
          "type": "uint256"
        }
      ],
      "name": "determineRank",
      "outputs": [
        {
          "internalType": "enum FastCredit.Rank",
          "name": "",
          "type": "uint8"
        }
      ],
      "stateMutability": "view",
      "type": "function"
    },
    {
      "inputs": [],
      "name": "diamondThreshold",
      "outputs": [
        {
          "internalType": "uint256",
          "name": "",
          "type": "uint256"
        }
      ],
      "stateMutability": "view",
      "type": "function"
    },
    {
      "inputs": [],
      "name": "fastCredit",
      "outputs": [
        {
          "internalType": "contract FastCredit",
          "name": "",
          "type": "address"
        }
      ],
      "stateMutability": "view",
      "type": "function"
    },
    {
      "inputs": [
        {
          "internalType": "address",
          "name": "user",
          "type": "address"
        }
      ],
      "name": "getStakeInfo",
      "outputs": [
        {
          "internalType": "uint256",
          "name": "amount",
          "type": "uint256"
        },
        {
          "internalType": "uint256",
          "name": "timestamp",
          "type": "uint256"
        },
        {
          "internalType": "bool",
          "name": "hasUnstaked",
          "type": "bool"
        }
      ],
      "stateMutability": "view",
      "type": "function"
    },
    {
      "inputs": [],
      "name": "goldThreshold",
      "outputs": [
        {
          "internalType": "uint256",
          "name": "",
          "type": "uint256"
        }
      ],
      "stateMutability": "view",
      "type": "function"
    },
    {
      "inputs": [],
      "name": "lockPeriod",
      "outputs": [
        {
          "internalType": "uint256",
          "name": "",
          "type": "uint256"
        }
      ],
      "stateMutability": "view",
      "type": "function"
    },
    {
      "inputs": [],
      "name": "minimumStakeAmount",
      "outputs": [
        {
          "internalType": "uint256",
          "name": "",
          "type": "uint256"
        }
      ],
      "stateMutability": "view",
      "type": "function"
    },
    {
      "inputs": [],
      "name": "owner",
      "outputs": [
        {
          "internalType": "address",
          "name": "",
          "type": "address"
        }
      ],
      "stateMutability": "view",
      "type": "function"
    },
    {
      "inputs": [],
      "name": "platinumThreshold",
      "outputs": [
        {
          "internalType": "uint256",
          "name": "",
          "type": "uint256"
        }
      ],
      "stateMutability": "view",
      "type": "function"
    },
    {
      "inputs": [],
      "name": "renounceOwnership",
      "outputs": [],
      "stateMutability": "nonpayable",
      "type": "function"
    },
    {
      "inputs": [
        {
          "internalType": "uint256",
          "name": "period",
          "type": "uint256"
        }
      ],
      "name": "setLockPeriod",
      "outputs": [],
      "stateMutability": "nonpayable",
      "type": "function"
    },
    {
      "inputs": [
        {
          "internalType": "uint256",
          "name": "amount",
          "type": "uint256"
        }
      ],
      "name": "setMinimumStakeAmount",
      "outputs": [],
      "stateMutability": "nonpayable",
      "type": "function"
    },
    {
      "inputs": [
        {
          "internalType": "uint256",
          "name": "bronze",
          "type": "uint256"
        },
        {
          "internalType": "uint256",
          "name": "silver",
          "type": "uint256"
        },
        {
          "internalType": "uint256",
          "name": "gold",
          "type": "uint256"
        },
        {
          "internalType": "uint256",
          "name": "platinum",
          "type": "uint256"
        },
        {
          "internalType": "uint256",
          "name": "diamond",
          "type": "uint256"
        }
      ],
      "name": "setRankThresholds",
      "outputs": [],
      "stateMutability": "nonpayable",
      "type": "function"
    },
    {
      "inputs": [],
      "name": "silverThreshold",
      "outputs": [
        {
          "internalType": "uint256",
          "name": "",
          "type": "uint256"
        }
      ],
      "stateMutability": "view",
      "type": "function"
    },
    {
      "inputs": [
        {
          "internalType": "uint256",
          "name": "amount",
          "type": "uint256"
        },
        {
          "internalType": "string",
          "name": "initialMetadataURI",
          "type": "string"
        }
      ],
      "name": "stake",
      "outputs": [],
      "stateMutability": "nonpayable",
      "type": "function"
    },
    {
      "inputs": [
        {
          "internalType": "address",
          "name": "newOwner",
          "type": "address"
        }
      ],
      "name": "transferOwnership",
      "outputs": [],
      "stateMutability": "nonpayable",
      "type": "function"
    },
    {
      "inputs": [],
      "name": "unstake",
      "outputs": [],
      "stateMutability": "nonpayable",
      "type": "function"
    },
    {
      "inputs": [],
      "name": "usdcToken",
      "outputs": [
        {
          "internalType": "contract IERC20",
          "name": "",
          "type": "address"
        }
      ],
      "stateMutability": "view",
      "type": "function"
    }
  ],
  "bytecode": "0x60806040526298968060045562278d00600555629896806006556302faf0806007556305f5e100600855630ee6b280600955631dcd6500600a5534801561004557600080fd5b50604051610ed4380380610ed48339810160408190526100649161011d565b61006d336100b1565b60018055600280546001600160a01b038085166001600160a01b03199283161790925560038054928416929091169190911790556100aa336100b1565b5050610150565b600080546001600160a01b038381166001600160a01b0319831681178455604051919092169283917f8be0079c531659141344cd1fd0a4f28419497f9722a3daafe3b4186f6b6457e09190a35050565b80516001600160a01b038116811461011857600080fd5b919050565b6000806040838503121561013057600080fd5b61013983610101565b915061014760208401610101565b90509250929050565b610d758061015f6000396000f3fe608060405234801561001057600080fd5b50600436106101215760003560e01c80638199da67116100ad578063c345315311610071578063c345315314610220578063c6d410f914610294578063d5b2c1911461029d578063e7e4e1f7146102a6578063f2fde38b146102b957600080fd5b80638199da67146101c05780638582d14c146101e05780638821d8fe146101f35780638da5cb5b146101fc578063a39ea6fb1461020d57600080fd5b80635da736a7116100f45780635da736a71461018a5780636b036f4514610193578063703304881461019c578063715018a6146101a5578063779972da146101ad57600080fd5b80630d29fcd41461012657806311eac8551461013b5780632def66201461016b5780633fd8b02f14610173575b600080fd5b610139610134366004610abd565b6102cc565b005b60035461014e906001600160a01b031681565b6040516001600160a01b0390911681526020015b60405180910390f35b6101396102d9565b61017c60055481565b604051908152602001610162565b61017c60065481565b61017c60045481565b61017c60075481565b61013961052c565b6101396101bb366004610abd565b610540565b6101d36101ce366004610abd565b61054d565b6040516101629190610af8565b60025461014e906001600160a01b031681565b61017c600a5481565b6000546001600160a01b031661014e565b61013961021b366004610b0c565b6105ac565b61027761022e366004610b47565b6001600160a01b03166000908152600b602090815260409182902082516060810184528154808252600183015493820184905260029092015460ff161515930183905292909190565b604080519384526020840192909252151590820152606001610162565b61017c60085481565b61017c60095481565b6101396102b4366004610b8d565b6105cb565b6101396102c7366004610b47565b61099a565b6102d4610a13565b600455565b6002600154036103305760405162461bcd60e51b815260206004820152601f60248201527f5265656e7472616e637947756172643a207265656e7472616e742063616c6c0060448201526064015b60405180910390fd5b6002600155336000908152600b602052604090208054806103845760405162461bcd60e51b815260206004820152600e60248201526d139bc81cdd185ad948199bdd5b9960921b6044820152606401610327565b600282015460ff16156103cc5760405162461bcd60e51b815260206004820152601060248201526f105b1c9958591e481d5b9cdd185ad95960821b6044820152606401610327565b60055482600101546103de9190610c48565b42101561042d5760405162461bcd60e51b815260206004820152601860248201527f4c6f636b20706572696f64206e6f7420636f6d706c65746500000000000000006044820152606401610327565b60028201805460ff1916600117905560035460405163a9059cbb60e01b8152336004820152602481018390526001600160a01b039091169063a9059cbb906044016020604051808303816000875af115801561048d573d6000803e3d6000fd5b505050506040513d601f19601f820116820180604052508101906104b19190610c6e565b6104ef5760405162461bcd60e51b815260206004820152600f60248201526e151c985b9cd9995c8819985a5b1959608a1b6044820152606401610327565b60405181815233907f0f5bb82176feb1b5e747e28471aa92156a04d9f3ab9f45f28e2d704232b93f759060200160405180910390a2505060018055565b610534610a13565b61053e6000610a6d565b565b610548610a13565b600555565b6000600a54821061056057506005919050565b600954821061057157506004919050565b600854821061058257506003919050565b600754821061059357506002919050565b60065482106105a457506001919050565b506000919050565b6105b4610a13565b600694909455600792909255600855600955600a55565b60026001540361061d5760405162461bcd60e51b815260206004820152601f60248201527f5265656e7472616e637947756172643a207265656e7472616e742063616c6c006044820152606401610327565b60026001556004548210156106745760405162461bcd60e51b815260206004820152601a60248201527f5374616b6520616d6f756e742062656c6f77206d696e696d756d0000000000006044820152606401610327565b60025460405163433cc83960e11b81523360048201526001600160a01b0390911690638679907290602401602060405180830381865afa1580156106bc573d6000803e3d6000fd5b505050506040513d601f19601f820116820180604052508101906106e09190610c90565b1561072d5760405162461bcd60e51b815260206004820152601b60248201527f5573657220616c72656164792068617320612070617373706f727400000000006044820152606401610327565b336000908152600b60205260409020541561078a5760405162461bcd60e51b815260206004820152601760248201527f557365722068617320616c7265616479207374616b65640000000000000000006044820152606401610327565b6003546040516323b872dd60e01b8152336004820152306024820152604481018490526001600160a01b03909116906323b872dd906064016020604051808303816000875af11580156107e1573d6000803e3d6000fd5b505050506040513d601f19601f820116820180604052508101906108059190610c6e565b6108435760405162461bcd60e51b815260206004820152600f60248201526e151c985b9cd9995c8819985a5b1959608a1b6044820152606401610327565b60408051606081018252838152426020808301918252600083850181815233808352600b845291869020945185559251600185015591516002909301805460ff19169315159390931790925591518481527f9e71bc8eea02a63969f509818f2dafb9254532904319f9dbda79b67bd34a5f3d910160405180910390a260006108ca8361054d565b6002546040516365aab2dd60e11b81529192506000916001600160a01b039091169063cb5565ba906109089033908690899087908a90600401610ca9565b6020604051808303816000875af1158015610927573d6000803e3d6000fd5b505050506040513d601f19601f8201168201806040525081019061094b9190610c90565b9050336001600160a01b03167f86b566a5fb2a60178b66966466f492a2f8aac21a694acb0f5b5aea2716b87f7d8284604051610988929190610d2b565b60405180910390a25050600180555050565b6109a2610a13565b6001600160a01b038116610a075760405162461bcd60e51b815260206004820152602660248201527f4f776e61626c653a206e6577206f776e657220697320746865207a65726f206160448201526564647265737360d01b6064820152608401610327565b610a1081610a6d565b50565b6000546001600160a01b0316331461053e5760405162461bcd60e51b815260206004820181905260248201527f4f776e61626c653a2063616c6c6572206973206e6f7420746865206f776e65726044820152606401610327565b600080546001600160a01b038381166001600160a01b0319831681178455604051919092169283917f8be0079c531659141344cd1fd0a4f28419497f9722a3daafe3b4186f6b6457e09190a35050565b600060208284031215610acf57600080fd5b5035919050565b60068110610af457634e487b7160e01b600052602160045260246000fd5b9052565b60208101610b068284610ad6565b92915050565b600080600080600060a08688031215610b2457600080fd5b505083359560208501359550604085013594606081013594506080013592509050565b600060208284031215610b5957600080fd5b81356001600160a01b0381168114610b7057600080fd5b9392505050565b634e487b7160e01b600052604160045260246000fd5b60008060408385031215610ba057600080fd5b82359150602083013567ffffffffffffffff80821115610bbf57600080fd5b818501915085601f830112610bd357600080fd5b813581811115610be557610be5610b77565b604051601f8201601f19908116603f01168101908382118183101715610c0d57610c0d610b77565b81604052828152886020848701011115610c2657600080fd5b8260208601602083013760006020848301015280955050505050509250929050565b60008219821115610c6957634e487b7160e01b600052601160045260246000fd5b500190565b600060208284031215610c8057600080fd5b81518015158114610b7057600080fd5b600060208284031215610ca257600080fd5b5051919050565b6001600160a01b038616815260006020610cc581840188610ad6565b85604084015284606084015260a0608084015283518060a085015260005b81811015610cff5785810183015185820160c001528201610ce3565b81811115610d1157600060c083870101525b50601f01601f19169290920160c001979650505050505050565b82815260408101610b706020830184610ad656fea2646970667358221220e5275581aa9b4048871fdb108f89fa6ce003f5cf5b48a60876fd602f25e2f87e64736f6c634300080d0033",
  "linkReferences": {},
  "deployedLinkReferences": {}
}